:040000008031132810
:100008007E14803120007F08F0008B1A0B1D0E280B
:100018008131102170082000FF007E100900803116
:100028001528FC01E501E6017E10200080311C281E
:100038008131252180318B170B172000E401A301A2
:10004800BB30F3008030F400803170208031813182
:1000580068218031FA007A082000E3000D30630639
:1000680003195A28EA30F3008030F4006308FA00D4
:10007800FB017A08F5007B08F6008031702080319A
:1000880020006308FA006408233E860087017A0886
:1000980081000130FA007A08E4076408233E8600EC
:1000A800870181013F306406031D2B28D730F300F8
:1000B8008030F4008031702080312330F30000302C
:1000C800F400803170208031E630F3008030F40095
:1000D80080317020803121287530F70077082000A2
:1000E800A1007408F8007308F700F30A0319F40A6A
:1000F80077088400780885000008F900790820004E
:10010800A2002208031908002530220603199128A5
:10011800220881315F21803175282000A001A428A0
:100128002108860087010108F7007708A20002303D
:10013800F7007708A107220881315F2180317528EF
:100148007408F8007308F700F30A0319F40A77082B
:1001580084007808850000082000A200003A0319EE
:10016800BA28633A031994289F28752808000A3486
:100178000D3450346C346534613473346534203450
:100188007434793470346534203461342034633401
:10019800683461347234613463347434653472346D
:1001A8000A340D3400340A340D3459346F3475343C
:1001B8002034743479347034653420346134203414
:1001C8002234003422340D340A34003425346334A4
:1001D800003422008C01FF3021008C003F302300C6
:1001E8008C0022008D01FF3021008D003F3023005C
:1001F8008D0024008D0122008E01FE3021008E002A
:100208002200900108302100900024009001210074
:10021800951722009D0108000B117C08200095000D
:100228000130E5070030E63D003066020F30031963
:100238006502031C0800813164212000E501E60104
:1002480008008131592181318031ED20813181319E
:100258003121813181313C21080021001508C03944
:100268001738950020009501FC010B118B1608002A
:10027800483023009F0090309D0026309E00CF30EC
:100288009B009C0108002000911E472923009D1C0B
:100298004F291D121D1619080800F1002000111E13
:1002A8005229710823009A00080072302100990031
:1002B8009A0198010800F200720881315121080062
:0E02C800013022008E06080081314721080017
:020000040001F9
:04000E00C4FFFFFF2D
:00000001FF
